{
  "_format": "hh-sol-artifact-1",
  "contractName": "PhalaFlex",
  "sourceName": "contracts/PhalaFlex.sol",
  "abi": [
    {
      "inputs": [
        {
          "internalType": "address",
          "name": "phatAttestor",
          "type": "address"
        }
      ],
      "stateMutability": "nonpayable",
      "type": "constructor"
    },
    {
      "inputs": [],
      "name": "BadAttestor",
      "type": "error"
    },
    {
      "inputs": [
        {
          "internalType": "uint256",
          "name": "kenLen",
          "type": "uint256"
        },
        {
          "internalType": "uint256",
          "name": "valueLen",
          "type": "uint256"
        }
      ],
      "name": "BadCondLen",
      "type": "error"
    },
    {
      "inputs": [
        {
          "internalType": "uint256",
          "name": "kenLen",
          "type": "uint256"
        },
        {
          "internalType": "uint256",
          "name": "valueLen",
          "type": "uint256"
        }
      ],
      "name": "BadUpdateLen",
      "type": "error"
    },
    {
      "inputs": [
        {
          "internalType": "uint8",
          "name": "actionId",
          "type": "uint8"
        }
      ],
      "name": "CannotDecodeAction",
      "type": "error"
    },
    {
      "inputs": [
        {
          "internalType": "bytes",
          "name": "cond",
          "type": "bytes"
        },
        {
          "internalType": "uint32",
          "name": "expected",
          "type": "uint32"
        },
        {
          "internalType": "uint32",
          "name": "actual",
          "type": "uint32"
        }
      ],
      "name": "CondNotMet",
      "type": "error"
    },
    {
      "inputs": [
        {
          "internalType": "bytes",
          "name": "data",
          "type": "bytes"
        }
      ],
      "name": "Internal_toUint32Strict_outOfBounds",
      "type": "error"
    },
    {
      "inputs": [
        {
          "internalType": "uint256",
          "name": "targetIdx",
          "type": "uint256"
        },
        {
          "internalType": "uint256",
          "name": "tailIdx",
          "type": "uint256"
        }
      ],
      "name": "InvalidPopTarget",
      "type": "error"
    },
    {
      "inputs": [],
      "name": "MetaTxSignatureNotMatch",
      "type": "error"
    },
    {
      "inputs": [
        {
          "internalType": "uint256",
          "name": "actual",
          "type": "uint256"
        },
        {
          "internalType": "uint256",
          "name": "currentNonce",
          "type": "uint256"
        }
      ],
      "name": "NonceTooLow",
      "type": "error"
    },
    {
      "inputs": [
        {
          "internalType": "uint8",
          "name": "actionId",
          "type": "uint8"
        }
      ],
      "name": "UnsupportedAction",
      "type": "error"
    },
    {
      "inputs": [
        {
          "internalType": "address",
          "name": "addr",
          "type": "address"
        }
      ],
      "name": "lockedCannotAccess",
      "type": "error"
    },
    {
      "anonymous": false,
      "inputs": [
        {
          "indexed": false,
          "internalType": "string",
          "name": "authyHash",
          "type": "string"
        },
        {
          "indexed": false,
          "internalType": "address",
          "name": "Beneficiary",
          "type": "address"
        },
        {
          "indexed": false,
          "internalType": "uint256",
          "name": "createdAt",
          "type": "uint256"
        }
      ],
      "name": "AccountCreated",
      "type": "event"
    },
    {
      "anonymous": false,
      "inputs": [
        {
          "indexed": false,
          "internalType": "address",
          "name": "user",
          "type": "address"
        },
        {
          "indexed": false,
          "internalType": "string",
          "name": "newAuthyHash",
          "type": "string"
        }
      ],
      "name": "AuthyHashUpdated",
      "type": "event"
    },
    {
      "anonymous": false,
      "inputs": [
        {
          "indexed": false,
          "internalType": "address",
          "name": "user",
          "type": "address"
        },
        {
          "indexed": false,
          "internalType": "address",
          "name": "newBeneficiary",
          "type": "address"
        }
      ],
      "name": "BeneficiaryUpdated",
      "type": "event"
    },
    {
      "anonymous": false,
      "inputs": [
        {
          "indexed": false,
          "internalType": "uint256",
          "name": "reqId",
          "type": "uint256"
        },
        {
          "indexed": false,
          "internalType": "address",
          "name": "user",
          "type": "address"
        },
        {
          "indexed": false,
          "internalType": "uint256",
          "name": "errno",
          "type": "uint256"
        }
      ],
      "name": "ErrorReceived",
      "type": "event"
    },
    {
      "anonymous": false,
      "inputs": [
        {
          "indexed": false,
          "internalType": "uint256",
          "name": "reqId",
          "type": "uint256"
        },
        {
          "indexed": false,
          "internalType": "address",
          "name": "user",
          "type": "address"
        }
      ],
      "name": "InvalidOTP",
      "type": "event"
    },
    {
      "anonymous": false,
      "inputs": [
        {
          "indexed": false,
          "internalType": "address",
          "name": "user",
          "type": "address"
        }
      ],
      "name": "LockedCannotAccess",
      "type": "event"
    },
    {
      "anonymous": false,
      "inputs": [
        {
          "indexed": false,
          "internalType": "uint256",
          "name": "",
          "type": "uint256"
        }
      ],
      "name": "MessageProcessedTo",
      "type": "event"
    },
    {
      "anonymous": false,
      "inputs": [
        {
          "indexed": false,
          "internalType": "uint256",
          "name": "idx",
          "type": "uint256"
        },
        {
          "indexed": false,
          "internalType": "bytes",
          "name": "data",
          "type": "bytes"
        }
      ],
      "name": "MessageQueued",
      "type": "event"
    },
    {
      "anonymous": false,
      "inputs": [],
      "name": "MetaTxDecoded",
      "type": "event"
    },
    {
      "anonymous": false,
      "inputs": [
        {
          "indexed": false,
          "internalType": "address",
          "name": "user",
          "type": "address"
        },
        {
          "indexed": false,
          "internalType": "uint256",
          "name": "amount",
          "type": "uint256"
        }
      ],
      "name": "NativeStaked",
      "type": "event"
    },
    {
      "anonymous": false,
      "inputs": [
        {
          "indexed": false,
          "internalType": "address",
          "name": "user",
          "type": "address"
        },
        {
          "indexed": false,
          "internalType": "uint256",
          "name": "amount",
          "type": "uint256"
        },
        {
          "indexed": false,
          "internalType": "bool",
          "name": "isBeneficiary",
          "type": "bool"
        }
      ],
      "name": "NativeWithdrawn",
      "type": "event"
    },
    {
      "anonymous": false,
      "inputs": [
        {
          "indexed": true,
          "internalType": "address",
          "name": "previousOwner",
          "type": "address"
        },
        {
          "indexed": true,
          "internalType": "address",
          "name": "newOwner",
          "type": "address"
        }
      ],
      "name": "OwnershipTransferred",
      "type": "event"
    },
    {
      "anonymous": false,
      "inputs": [
        {
          "indexed": false,
          "internalType": "uint256",
          "name": "reqId",
          "type": "uint256"
        },
        {
          "indexed": false,
          "internalType": "address",
          "name": "user",
          "type": "address"
        },
        {
          "indexed": false,
          "internalType": "uint256",
          "name": "value",
          "type": "uint256"
        }
      ],
      "name": "ResponseReceived",
      "type": "event"
    },
    {
      "anonymous": false,
      "inputs": [
        {
          "indexed": true,
          "internalType": "bytes32",
          "name": "role",
          "type": "bytes32"
        },
        {
          "indexed": true,
          "internalType": "bytes32",
          "name": "previousAdminRole",
          "type": "bytes32"
        },
        {
          "indexed": true,
          "internalType": "bytes32",
          "name": "newAdminRole",
          "type": "bytes32"
        }
      ],
      "name": "RoleAdminChanged",
      "type": "event"
    },
    {
      "anonymous": false,
      "inputs": [
        {
          "indexed": true,
          "internalType": "bytes32",
          "name": "role",
          "type": "bytes32"
        },
        {
          "indexed": true,
          "internalType": "address",
          "name": "account",
          "type": "address"
        },
        {
          "indexed": true,
          "internalType": "address",
          "name": "sender",
          "type": "address"
        }
      ],
      "name": "RoleGranted",
      "type": "event"
    },
    {
      "anonymous": false,
      "inputs": [
        {
          "indexed": true,
          "internalType": "bytes32",
          "name": "role",
          "type": "bytes32"
        },
        {
          "indexed": true,
          "internalType": "address",
          "name": "account",
          "type": "address"
        },
        {
          "indexed": true,
          "internalType": "address",
          "name": "sender",
          "type": "address"
        }
      ],
      "name": "RoleRevoked",
      "type": "event"
    },
    {
      "anonymous": false,
      "inputs": [
        {
          "indexed": false,
          "internalType": "uint256",
          "name": "reqId",
          "type": "uint256"
        },
        {
          "indexed": false,
          "internalType": "address",
          "name": "user",
          "type": "address"
        }
      ],
      "name": "SuccessOTP",
      "type": "event"
    },
    {
      "anonymous": false,
      "inputs": [
        {
          "indexed": false,
          "internalType": "address",
          "name": "user",
          "type": "address"
        },
        {
          "indexed": false,
          "internalType": "enum PhalaFlex.Token",
          "name": "token",
          "type": "uint8"
        },
        {
          "indexed": false,
          "internalType": "uint256",
          "name": "amount",
          "type": "uint256"
        }
      ],
      "name": "TokenStaked",
      "type": "event"
    },
    {
      "anonymous": false,
      "inputs": [
        {
          "indexed": false,
          "internalType": "address",
          "name": "user",
          "type": "address"
        },
        {
          "indexed": false,
          "internalType": "enum PhalaFlex.Token",
          "name": "token",
          "type": "uint8"
        },
        {
          "indexed": false,
          "internalType": "uint256",
          "name": "amount",
          "type": "uint256"
        },
        {
          "indexed": false,
          "internalType": "bool",
          "name": "isBeneficiary",
          "type": "bool"
        }
      ],
      "name": "TokenWithdrawn",
      "type": "event"
    },
    {
      "stateMutability": "payable",
      "type": "fallback"
    },
    {
      "inputs": [],
      "name": "ATTESTOR_ROLE",
      "outputs": [
        {
          "internalType": "bytes32",
          "name": "",
          "type": "bytes32"
        }
      ],
      "stateMutability": "view",
      "type": "function"
    },
    {
      "inputs": [],
      "name": "DEFAULT_ADMIN_ROLE",
      "outputs": [
        {
          "internalType": "bytes32",
          "name": "",
          "type": "bytes32"
        }
      ],
      "stateMutability": "view",
      "type": "function"
    },
    {
      "inputs": [
        {
          "internalType": "enum PhalaFlex.Token",
          "name": "",
          "type": "uint8"
        }
      ],
      "name": "TokenContractAddress",
      "outputs": [
        {
          "internalType": "address",
          "name": "",
          "type": "address"
        }
      ],
      "stateMutability": "view",
      "type": "function"
    },
    {
      "inputs": [
        {
          "internalType": "address",
          "name": "",
          "type": "address"
        }
      ],
      "name": "accounts",
      "outputs": [
        {
          "internalType": "uint256",
          "name": "createdAt",
          "type": "uint256"
        },
        {
          "internalType": "string",
          "name": "authyHash",
          "type": "string"
        },
        {
          "internalType": "bool",
          "name": "isUnlocked",
          "type": "bool"
        },
        {
          "internalType": "uint256",
          "name": "lastUnlockedTime",
          "type": "uint256"
        },
        {
          "internalType": "address",
          "name": "beneficiary",
          "type": "address"
        }
      ],
      "stateMutability": "view",
      "type": "function"
    },
    {
      "inputs": [
        {
          "internalType": "address",
          "name": "",
          "type": "address"
        }
      ],
      "name": "beneficiaryUserMap",
      "outputs": [
        {
          "internalType": "address",
          "name": "",
          "type": "address"
        }
      ],
      "stateMutability": "view",
      "type": "function"
    },
    {
      "inputs": [
        {
          "internalType": "address",
          "name": "user",
          "type": "address"
        }
      ],
      "name": "checkIsUnlocked",
      "outputs": [
        {
          "internalType": "bool",
          "name": "",
          "type": "bool"
        }
      ],
      "stateMutability": "view",
      "type": "function"
    },
    {
      "inputs": [
        {
          "internalType": "address",
          "name": "_user",
          "type": "address"
        }
      ],
      "name": "checkLock",
      "outputs": [
        {
          "internalType": "bool",
          "name": "",
          "type": "bool"
        }
      ],
      "stateMutability": "view",
      "type": "function"
    },
    {
      "inputs": [
        {
          "internalType": "address",
          "name": "user",
          "type": "address"
        }
      ],
      "name": "getBeneficiary",
      "outputs": [
        {
          "internalType": "address",
          "name": "",
          "type": "address"
        }
      ],
      "stateMutability": "view",
      "type": "function"
    },
    {
      "inputs": [],
      "name": "getContractBalance",
      "outputs": [
        {
          "internalType": "uint256",
          "name": "",
          "type": "uint256"
        }
      ],
      "stateMutability": "view",
      "type": "function"
    },
    {
      "inputs": [],
      "name": "getCurrent",
      "outputs": [
        {
          "internalType": "bytes",
          "name": "",
          "type": "bytes"
        }
      ],
      "stateMutability": "view",
      "type": "function"
    },
    {
      "inputs": [],
      "name": "getHeadIndex",
      "outputs": [
        {
          "internalType": "uint32",
          "name": "",
          "type": "uint32"
        }
      ],
      "stateMutability": "view",
      "type": "function"
    },
    {
      "inputs": [],
      "name": "getHeadStorageKey",
      "outputs": [
        {
          "internalType": "bytes",
          "name": "",
          "type": "bytes"
        }
      ],
      "stateMutability": "view",
      "type": "function"
    },
    {
      "inputs": [
        {
          "internalType": "address",
          "name": "user",
          "type": "address"
        }
      ],
      "name": "getLastUnlockedTime",
      "outputs": [
        {
          "internalType": "uint256",
          "name": "",
          "type": "uint256"
        }
      ],
      "stateMutability": "view",
      "type": "function"
    },
    {
      "inputs": [
        {
          "internalType": "bytes32",
          "name": "role",
          "type": "bytes32"
        }
      ],
      "name": "getRoleAdmin",
      "outputs": [
        {
          "internalType": "bytes32",
          "name": "",
          "type": "bytes32"
        }
      ],
      "stateMutability": "view",
      "type": "function"
    },
    {
      "inputs": [
        {
          "internalType": "bytes",
          "name": "key",
          "type": "bytes"
        }
      ],
      "name": "getStorage",
      "outputs": [
        {
          "internalType": "bytes",
          "name": "",
          "type": "bytes"
        }
      ],
      "stateMutability": "view",
      "type": "function"
    },
    {
      "inputs": [],
      "name": "getTailIndex",
      "outputs": [
        {
          "internalType": "uint32",
          "name": "",
          "type": "uint32"
        }
      ],
      "stateMutability": "view",
      "type": "function"
    },
    {
      "inputs": [],
      "name": "getTailStorageKey",
      "outputs": [
        {
          "internalType": "bytes",
          "name": "",
          "type": "bytes"
        }
      ],
      "stateMutability": "view",
      "type": "function"
    },
    {
      "inputs": [
        {
          "internalType": "enum PhalaFlex.Token",
          "name": "token",
          "type": "uint8"
        }
      ],
      "name": "getTokenContractAddress",
      "outputs": [
        {
          "internalType": "address",
          "name": "",
          "type": "address"
        }
      ],
      "stateMutability": "view",
      "type": "function"
    },
    {
      "inputs": [
        {
          "internalType": "bytes32",
          "name": "role",
          "type": "bytes32"
        },
        {
          "internalType": "address",
          "name": "account",
          "type": "address"
        }
      ],
      "name": "grantRole",
      "outputs": [],
      "stateMutability": "nonpayable",
      "type": "function"
    },
    {
      "inputs": [
        {
          "internalType": "bytes32",
          "name": "role",
          "type": "bytes32"
        },
        {
          "internalType": "address",
          "name": "account",
          "type": "address"
        }
      ],
      "name": "hasRole",
      "outputs": [
        {
          "internalType": "bool",
          "name": "",
          "type": "bool"
        }
      ],
      "stateMutability": "view",
      "type": "function"
    },
    {
      "inputs": [
        {
          "internalType": "address",
          "name": "from",
          "type": "address"
        }
      ],
      "name": "metaTxGetNonce",
      "outputs": [
        {
          "internalType": "uint256",
          "name": "",
          "type": "uint256"
        }
      ],
      "stateMutability": "view",
      "type": "function"
    },
    {
      "inputs": [
        {
          "internalType": "address",
          "name": "from",
          "type": "address"
        },
        {
          "internalType": "bytes",
          "name": "data",
          "type": "bytes"
        }
      ],
      "name": "metaTxPrepare",
      "outputs": [
        {
          "components": [
            {
              "internalType": "address",
              "name": "from",
              "type": "address"
            },
            {
              "internalType": "uint256",
              "name": "nonce",
              "type": "uint256"
            },
            {
              "internalType": "bytes",
              "name": "data",
              "type": "bytes"
            }
          ],
          "internalType": "struct MetaTxReceiver.ForwardRequest",
          "name": "",
          "type": "tuple"
        },
        {
          "internalType": "bytes32",
          "name": "",
          "type": "bytes32"
        }
      ],
      "stateMutability": "view",
      "type": "function"
    },
    {
      "inputs": [
        {
          "internalType": "address",
          "name": "from",
          "type": "address"
        },
        {
          "internalType": "bytes",
          "name": "data",
          "type": "bytes"
        },
        {
          "internalType": "uint256",
          "name": "nonce",
          "type": "uint256"
        }
      ],
      "name": "metaTxPrepareWithNonce",
      "outputs": [
        {
          "components": [
            {
              "internalType": "address",
              "name": "from",
              "type": "address"
            },
            {
              "internalType": "uint256",
              "name": "nonce",
              "type": "uint256"
            },
            {
              "internalType": "bytes",
              "name": "data",
              "type": "bytes"
            }
          ],
          "internalType": "struct MetaTxReceiver.ForwardRequest",
          "name": "",
          "type": "tuple"
        },
        {
          "internalType": "bytes32",
          "name": "",
          "type": "bytes32"
        }
      ],
      "stateMutability": "view",
      "type": "function"
    },
    {
      "inputs": [
        {
          "components": [
            {
              "internalType": "address",
              "name": "from",
              "type": "address"
            },
            {
              "internalType": "uint256",
              "name": "nonce",
              "type": "uint256"
            },
            {
              "internalType": "bytes",
              "name": "data",
              "type": "bytes"
            }
          ],
          "internalType": "struct MetaTxReceiver.ForwardRequest",
          "name": "req",
          "type": "tuple"
        },
        {
          "internalType": "bytes",
          "name": "signature",
          "type": "bytes"
        }
      ],
      "name": "metaTxRollupU256CondEq",
      "outputs": [
        {
          "internalType": "bool",
          "name": "",
          "type": "bool"
        }
      ],
      "stateMutability": "nonpayable",
      "type": "function"
    },
    {
      "inputs": [
        {
          "components": [
            {
              "internalType": "address",
              "name": "from",
              "type": "address"
            },
            {
              "internalType": "uint256",
              "name": "nonce",
              "type": "uint256"
            },
            {
              "internalType": "bytes",
              "name": "data",
              "type": "bytes"
            }
          ],
          "internalType": "struct MetaTxReceiver.ForwardRequest",
          "name": "req",
          "type": "tuple"
        },
        {
          "internalType": "bytes",
          "name": "signature",
          "type": "bytes"
        }
      ],
      "name": "metaTxVerify",
      "outputs": [
        {
          "internalType": "bool",
          "name": "",
          "type": "bool"
        }
      ],
      "stateMutability": "view",
      "type": "function"
    },
    {
      "inputs": [
        {
          "internalType": "address",
          "name": "user",
          "type": "address"
        }
      ],
      "name": "nativeBalanceOf",
      "outputs": [
        {
          "internalType": "uint256",
          "name": "balance",
          "type": "uint256"
        }
      ],
      "stateMutability": "view",
      "type": "function"
    },
    {
      "inputs": [],
      "name": "owner",
      "outputs": [
        {
          "internalType": "address",
          "name": "",
          "type": "address"
        }
      ],
      "stateMutability": "view",
      "type": "function"
    },
    {
      "inputs": [
        {
          "internalType": "bytes",
          "name": "key",
          "type": "bytes"
        }
      ],
      "name": "queueGetBytes",
      "outputs": [
        {
          "internalType": "bytes",
          "name": "",
          "type": "bytes"
        }
      ],
      "stateMutability": "view",
      "type": "function"
    },
    {
      "inputs": [],
      "name": "queueGetPrefix",
      "outputs": [
        {
          "internalType": "bytes",
          "name": "",
          "type": "bytes"
        }
      ],
      "stateMutability": "pure",
      "type": "function"
    },
    {
      "inputs": [
        {
          "internalType": "bytes",
          "name": "key",
          "type": "bytes"
        }
      ],
      "name": "queueGetUint",
      "outputs": [
        {
          "internalType": "uint32",
          "name": "",
          "type": "uint32"
        }
      ],
      "stateMutability": "view",
      "type": "function"
    },
    {
      "inputs": [],
      "name": "renounceOwnership",
      "outputs": [],
      "stateMutability": "nonpayable",
      "type": "function"
    },
    {
      "inputs": [
        {
          "internalType": "bytes32",
          "name": "role",
          "type": "bytes32"
        },
        {
          "internalType": "address",
          "name": "account",
          "type": "address"
        }
      ],
      "name": "renounceRole",
      "outputs": [],
      "stateMutability": "nonpayable",
      "type": "function"
    },
    {
      "inputs": [
        {
          "internalType": "uint256",
          "name": "_otp",
          "type": "uint256"
        },
        {
          "internalType": "bool",
          "name": "_isBeneficiary",
          "type": "bool"
        }
      ],
      "name": "request",
      "outputs": [],
      "stateMutability": "nonpayable",
      "type": "function"
    },
    {
      "inputs": [
        {
          "internalType": "bytes32",
          "name": "role",
          "type": "bytes32"
        },
        {
          "internalType": "address",
          "name": "account",
          "type": "address"
        }
      ],
      "name": "revokeRole",
      "outputs": [],
      "stateMutability": "nonpayable",
      "type": "function"
    },
    {
      "inputs": [
        {
          "internalType": "bytes[]",
          "name": "condKeys",
          "type": "bytes[]"
        },
        {
          "internalType": "bytes[]",
          "name": "condValues",
          "type": "bytes[]"
        },
        {
          "internalType": "bytes[]",
          "name": "updateKeys",
          "type": "bytes[]"
        },
        {
          "internalType": "bytes[]",
          "name": "updateValues",
          "type": "bytes[]"
        },
        {
          "internalType": "bytes[]",
          "name": "actions",
          "type": "bytes[]"
        }
      ],
      "name": "rollupU256CondEq",
      "outputs": [
        {
          "internalType": "bool",
          "name": "",
          "type": "bool"
        }
      ],
      "stateMutability": "nonpayable",
      "type": "function"
    },
    {
      "inputs": [
        {
          "internalType": "address",
          "name": "phatAttestor",
          "type": "address"
        }
      ],
      "name": "setAttestor",
      "outputs": [],
      "stateMutability": "nonpayable",
      "type": "function"
    },
    {
      "inputs": [
        {
          "internalType": "string",
          "name": "_authyHash",
          "type": "string"
        },
        {
          "internalType": "address",
          "name": "_beneficiary",
          "type": "address"
        }
      ],
      "name": "setup",
      "outputs": [],
      "stateMutability": "nonpayable",
      "type": "function"
    },
    {
      "inputs": [
        {
          "internalType": "address",
          "name": "_user",
          "type": "address"
        }
      ],
      "name": "stakeNative",
      "outputs": [],
      "stateMutability": "payable",
      "type": "function"
    },
    {
      "inputs": [
        {
          "internalType": "address",
          "name": "_user",
          "type": "address"
        },
        {
          "internalType": "enum PhalaFlex.Token",
          "name": "_token",
          "type": "uint8"
        },
        {
          "internalType": "uint256",
          "name": "_amount",
          "type": "uint256"
        }
      ],
      "name": "stakeToken",
      "outputs": [],
      "stateMutability": "nonpayable",
      "type": "function"
    },
    {
      "inputs": [
        {
          "internalType": "bytes4",
          "name": "interfaceId",
          "type": "bytes4"
        }
      ],
      "name": "supportsInterface",
      "outputs": [
        {
          "internalType": "bool",
          "name": "",
          "type": "bool"
        }
      ],
      "stateMutability": "view",
      "type": "function"
    },
    {
      "inputs": [],
      "name": "timeLimit",
      "outputs": [
        {
          "internalType": "uint256",
          "name": "",
          "type": "uint256"
        }
      ],
      "stateMutability": "view",
      "type": "function"
    },
    {
      "inputs": [
        {
          "internalType": "bytes",
          "name": "_bytes",
          "type": "bytes"
        }
      ],
      "name": "toUint32Strict",
      "outputs": [
        {
          "internalType": "uint32",
          "name": "",
          "type": "uint32"
        }
      ],
      "stateMutability": "pure",
      "type": "function"
    },
    {
      "inputs": [
        {
          "internalType": "address",
          "name": "user",
          "type": "address"
        },
        {
          "internalType": "enum PhalaFlex.Token",
          "name": "token",
          "type": "uint8"
        }
      ],
      "name": "tokenBalanceOf",
      "outputs": [
        {
          "internalType": "uint256",
          "name": "balance",
          "type": "uint256"
        }
      ],
      "stateMutability": "view",
      "type": "function"
    },
    {
      "inputs": [
        {
          "internalType": "address",
          "name": "newOwner",
          "type": "address"
        }
      ],
      "name": "transferOwnership",
      "outputs": [],
      "stateMutability": "nonpayable",
      "type": "function"
    },
    {
      "inputs": [
        {
          "internalType": "string",
          "name": "_newAuthyHash",
          "type": "string"
        }
      ],
      "name": "updateAuthyHash",
      "outputs": [],
      "stateMutability": "nonpayable",
      "type": "function"
    },
    {
      "inputs": [
        {
          "internalType": "address",
          "name": "_newBeneficiary",
          "type": "address"
        }
      ],
      "name": "updateBeneficiary",
      "outputs": [],
      "stateMutability": "nonpayable",
      "type": "function"
    },
    {
      "inputs": [
        {
          "internalType": "address",
          "name": "_user",
          "type": "address"
        },
        {
          "internalType": "uint256",
          "name": "_amount",
          "type": "uint256"
        },
        {
          "internalType": "bool",
          "name": "_isBeneficiary",
          "type": "bool"
        }
      ],
      "name": "withdrawNative",
      "outputs": [],
      "stateMutability": "nonpayable",
      "type": "function"
    },
    {
      "inputs": [
        {
          "internalType": "address",
          "name": "_user",
          "type": "address"
        },
        {
          "internalType": "enum PhalaFlex.Token",
          "name": "_token",
          "type": "uint8"
        },
        {
          "internalType": "uint256",
          "name": "_amount",
          "type": "uint256"
        },
        {
          "internalType": "bool",
          "name": "_isBeneficiary",
          "type": "bool"
        }
      ],
      "name": "withdrawToken",
      "outputs": [],
      "stateMutability": "nonpayable",
      "type": "function"
    },
    {
      "stateMutability": "payable",
      "type": "receive"
    }
  ],
  "bytecode": "0x6101406040526001600c553480156200001757600080fd5b5060405162004902380380620049028339810160408190526200003a9162000300565b604080518082018252601881527f50686174526f6c6c75704d657461547852656365697665720000000000000000602080830191825283518085019094526005845264302e302e3160d81b9084015260016000558151902060e08190527fae209a0b48f21c054280f2455d32cf309387644879d9acbd8ffc1991638118856101008190524660a0529192917f8b73c3c69bb8fe3d512ecc4cf759cc79239f7b179b0ffacaa9a75d522b39400f620001368184846040805160208101859052908101839052606081018290524660808201523060a082015260009060c0016040516020818303038152906040528051906020012090509392505050565b6080523060c0526101205250620001599250620001539150503390565b62000209565b620001857fa7e0cd0f2772b23ee4c329892293a6bd99d48c306b094d6d008c9a8bb8b731e4826200025b565b50600080527f5eff886ea0ce6ca488a3d6e336d6c0f75f46d19b42c06ce5ee98e42c96d256c78054732882ce9ec73cd80ab6c048c030bda65fd3a0263a6001600160a01b0319918216811790925560096020527fec8156718a8372b1db44bb411437d0870f3e3790d4a08526d024ce1b0b668f6b8054909116909117905562000332565b600480546001600160a01b038381166001600160a01b0319831681179093556040519116919082907f8be0079c531659141344cd1fd0a4f28419497f9722a3daafe3b4186f6b6457e090600090a35050565b60008281526002602090815260408083206001600160a01b038516845290915290205460ff16620002fc5760008281526002602090815260408083206001600160a01b03851684529091529020805460ff19166001179055620002bb3390565b6001600160a01b0316816001600160a01b0316837f2f8788117e7eff1d82e926ec794901d17c78024a50270940304540a733656f0d60405160405180910390a45b5050565b6000602082840312156200031357600080fd5b81516001600160a01b03811681146200032b57600080fd5b9392505050565b60805160a05160c05160e0516101005161012051614580620003826000396000612a5101526000612aa001526000612a7b015260006129d4015260006129fe01526000612a2801526145806000f3fe60806040526004361061027f5760003560e01c806391d148541161014e578063bb6494fa116100bb578063d547741f11610077578063d547741f1461086b578063e28da3e01461088b578063f26774c7146108ab578063f2fde38b146108e1578063f4034a9614610901578063f5770b1f1461093757005b8063bb6494fa146107b5578063bbbfe446146107d5578063c01d9785146107f5578063c08d1fe514610815578063caa0ff211461082b578063ce734b101461084b57005b8063a5662f851161010a578063a5662f85146106f2578063a736441314610712578063ad0bc46414610727578063ae34ebb014610747578063af76203814610767578063b409468a1461077c57005b806391d148541461063257806395270ba7146106525780639b1d9692146106885780639df73368146106a8578063a217fddf146106bd578063a51831a8146106d257005b80634f6e590e116101ec57806362723644116101a857806362723644146105695780636b7442db1461058b5780636f9fb98a146105c1578063715018a6146105d4578063843739cd146105e95780638da5cb5b1461061457005b80634f6e590e1461043e578063505a1b31146104685780635232f0d7146104bc57806353116137146104dc578063540df696146104fc5780635e5c06e21461053857005b80632e65af381161023b5780632e65af38146103895780632f2ff15d146103a9578063315dfaa4146103c957806335a5cfcb146103dc57806336568abe146103fe5780634230d4301461041e57005b806301ffc9a71461028857806306f5dfe2146102bd5780630aaffd2a146102dd57806318955d96146102fd57806322dae16c1461031d578063248a9ca31461034b57005b3661028657005b005b34801561029457600080fd5b506102a86102a3366004613499565b610957565b60405190151581526020015b60405180910390f35b3480156102c957600080fd5b506102866102d83660046134fa565b61098e565b3480156102e957600080fd5b506102866102f836600461354b565b610c13565b34801561030957600080fd5b506102a861031836600461354b565b610cd5565b34801561032957600080fd5b5061033d6103383660046135a9565b610d3d565b6040516102b4929190613654565b34801561035757600080fd5b5061037b61036636600461369c565b60009081526002602052604090206001015490565b6040519081526020016102b4565b34801561039557600080fd5b5061037b6103a43660046136b5565b610eb3565b3480156103b557600080fd5b506102866103c43660046136ea565b610f00565b6102866103d736600461354b565b610f2a565b3480156103e857600080fd5b506103f16110da565b6040516102b4919061371a565b34801561040a57600080fd5b506102866104193660046136ea565b611195565b34801561042a57600080fd5b5061028661043936600461372d565b611213565b34801561044a57600080fd5b506104536112a9565b60405163ffffffff90911681526020016102b4565b34801561047457600080fd5b506104a461048336600461354b565b6001600160a01b039081166000908152600560205260409020600401541690565b6040516001600160a01b0390911681526020016102b4565b3480156104c857600080fd5b5061033d6104d736600461376e565b6112d2565b3480156104e857600080fd5b506104536104f7366004613877565b611322565b34801561050857600080fd5b506102a861051736600461354b565b6001600160a01b031660009081526005602052604090206002015460ff1690565b34801561054457600080fd5b5061055861055336600461354b565b611376565b6040516102b49594939291906138b3565b34801561057557600080fd5b5061037b60008051602061450b83398151915281565b34801561059757600080fd5b506104a46105a63660046138f2565b6009602052600090815260409020546001600160a01b031681565b3480156105cd57600080fd5b504761037b565b3480156105e057600080fd5b5061028661143c565b3480156105f557600080fd5b50604080518082019091526002815261712f60f01b60208201526103f1565b34801561062057600080fd5b506004546001600160a01b03166104a4565b34801561063e57600080fd5b506102a861064d3660046136ea565b611450565b34801561065e57600080fd5b5061037b61066d36600461354b565b6001600160a01b031660009081526007602052604090205490565b34801561069457600080fd5b506103f16106a3366004613877565b61147b565b3480156106b457600080fd5b5061045361156c565b3480156106c957600080fd5b5061037b600081565b3480156106de57600080fd5b506102a86106ed366004613951565b611595565b3480156106fe57600080fd5b5061028661070d366004613a41565b6115fd565b34801561071e57600080fd5b506103f161189b565b34801561073357600080fd5b506102a8610742366004613a83565b611934565b34801561075357600080fd5b50610286610762366004613ae6565b611ab0565b34801561077357600080fd5b506103f1611b5f565b34801561078857600080fd5b5061037b61079736600461354b565b6001600160a01b031660009081526005602052604090206003015490565b3480156107c157600080fd5b506102866107d0366004613b31565b611b89565b3480156107e157600080fd5b506102a86107f0366004613a83565b611e03565b34801561080157600080fd5b506104a46108103660046138f2565b611f06565b34801561082157600080fd5b5061037b61038481565b34801561083757600080fd5b506103f1610846366004613877565b611f48565b34801561085757600080fd5b50610453610866366004613877565b611ff8565b34801561087757600080fd5b506102866108863660046136ea565b6120e8565b34801561089757600080fd5b506102866108a6366004613b6f565b61210d565b3480156108b757600080fd5b506104a46108c636600461354b565b600a602052600090815260409020546001600160a01b031681565b3480156108ed57600080fd5b506102866108fc36600461354b565b61225c565b34801561090d57600080fd5b5061037b61091c36600461354b565b6001600160a01b031660009081526001602052604090205490565b34801561094357600080fd5b5061028661095236600461354b565b6122d5565b60006001600160e01b03198216637965db0b60e01b148061098857506301ffc9a760e01b6001600160e01b03198316145b92915050565b6001600160a01b03841633146109bf5760405162461bcd60e51b81526004016109b690613b94565b60405180910390fd5b8381156109e357506001600160a01b038085166000908152600a6020526040902054165b6109ec81610cd5565b15610a40576040516001600160a01b038216815260008051602061452b833981519152906020015b60405180910390a1604051639888b20160e01b81526001600160a01b03821660048201526024016109b6565b6000600881868015610a5457610a54613bcb565b8015610a6257610a62613bcb565b815260208101919091526040016000908120546001600160a01b03169150610a8a8387610eb3565b905084811015610adc5760405162461bcd60e51b815260206004820152601f60248201527f416d6f756e74206973206d6f7265207468616e207468652062616c616e63650060448201526064016109b6565b60405163a9059cbb60e01b81526001600160a01b0388811660048301526024820187905283169063a9059cbb906044016020604051808303816000875af1158015610b2b573d6000803e3d6000fd5b505050506040513d601f19601f82011682018060405250810190610b4f9190613be1565b506001600160a01b03831660009081526006602052604081208691888015610b7957610b79613bcb565b8015610b8757610b87613bcb565b81526020019081526020016000206000828254610ba49190613c14565b90915550506001600160a01b03831660009081526005602052604090819020600201805460ff19169055517fd46eb1da44a3188e5a38d87d92b936ebb21b11a73b10a7d605bd0d481701b81090610c02908990899089908990613c49565b60405180910390a150505050505050565b610c1c33610cd5565b15610c5e5760405133815260008051602061452b833981519152906020015b60405180910390a1604051639888b20160e01b81523360048201526024016109b6565b336000818152600560209081526040918290206004810180546001600160a01b0319166001600160a01b0387169081179091556002909101805460ff191690558251938452908301527fe72eaf6addaa195f3c83095031dd08f3a96808dcf047babed1fe4e4f69d6c622910160405180910390a150565b6001600160a01b0381166000908152600560205260408120600301544290610d009061038490613c7d565b1080610d2857506001600160a01b03821660009081526005602052604090206002015460ff16155b15610d3557506001919050565b506000919050565b604080516060808201835260008083526020830152918101919091526001600160a01b038516600090815260016020526040812054831015610db7576001600160a01b03861660009081526001602052604090819020549051630117cd5b60e21b81526109b6918591600401918252602082015260400190565b60006040518060600160405280886001600160a01b0316815260200185815260200187878080601f016020809104026020016040519081016040528093929190818152602001838380828437600092018290525093909452505060405192935091610ea291507f2c521d146a6f6c09462cb178367b028f1718b1f01d7995bb405dae702c2bee7d908a908890610e50908c908c90613c90565b604051908190038120610e87949392916020019384526001600160a01b039290921660208401526040830152606082015260800190565b604051602081830303815290604052805190602001206122ed565b919350909150505b94509492505050565b6001600160a01b038216600090815260066020526040812081838015610edb57610edb613bcb565b8015610ee957610ee9613bcb565b815260200190815260200160002054905092915050565b600082815260026020526040902060010154610f1b8161233b565b610f258383612345565b505050565b6001600160a01b0381163314610f525760405162461bcd60e51b81526004016109b690613b94565b60003411610fa25760405162461bcd60e51b815260206004820152601f60248201527f6e61746976652073686f756c642062652067726561746572207468616e20300060448201526064016109b6565b6001600160a01b038116600090815260056020526040902054610fd75760405162461bcd60e51b81526004016109b690613ca0565b604051600090309034908381818185875af1925050503d8060008114611019576040519150601f19603f3d011682016040523d82523d6000602084013e61101e565b606091505b50509050806110675760405162461bcd60e51b81526020600482015260156024820152744661696c656420746f2073656e64204e617469766560581b60448201526064016109b6565b6001600160a01b0382166000908152600760205260408120805434929061108f908490613c7d565b9091555050604080516001600160a01b03841681523460208201527f7dfef604daa04ab8e184ff1ab372294efdb7f12d42eeb7b1421cead35699781591015b60405180910390a15050565b606060006110e6611b5f565b90506003816040516110f89190613cd7565b9081526020016040518091039020805461111190613cf3565b80601f016020809104026020016040519081016040528092919081815260200182805461113d90613cf3565b801561118a5780601f1061115f5761010080835404028352916020019161118a565b820191906000526020600020905b81548152906001019060200180831161116d57829003601f168201915b505050505091505090565b6001600160a01b03811633146112055760405162461bcd60e51b815260206004820152602f60248201527f416363657373436f6e74726f6c3a2063616e206f6e6c792072656e6f756e636560448201526e103937b632b9903337b91039b2b63360891b60648201526084016109b6565b61120f82826123cb565b5050565b61121c33610cd5565b1561123f5760405133815260008051602061452b83398151915290602001610c3b565b33600090815260056020526040902060010161125c828483613d7b565b503360008181526005602052604090819020600201805460ff19169055517fa426e0090aa6f058ca73beef2078e4714d51a6a8cbc5446478767f75c929e582916110ce9185908590613e63565b6000806109886040518060400160405280600581526020016417dd185a5b60da1b815250611ff8565b604080516060808201835260008083526020830152918101919091526001600160a01b03841660009081526001602052604081205461131690869086908690610d3d565b91509150935093915050565b6000815160000361133557506000919050565b81516020146113595781604051631ebee48360e11b81526004016109b6919061371a565b60008280602001905181019061136f9190613e9a565b9392505050565b6005602052600090815260409020805460018201805491929161139890613cf3565b80601f01602080910402602001604051908101604052809291908181526020018280546113c490613cf3565b80156114115780601f106113e657610100808354040283529160200191611411565b820191906000526020600020905b8154815290600101906020018083116113f457829003601f168201915b5050505060028301546003840154600490940154929360ff909116929091506001600160a01b031685565b611444612432565b61144e600061248c565b565b60009182526002602090815260408084206001600160a01b0393909316845291905290205460ff1690565b6060600060405180604001604052806002815260200161712f60f01b815250836040516020016114ac929190613eb7565b60405160208183030381529060405290506003816040516114cd9190613cd7565b908152602001604051809103902080546114e690613cf3565b80601f016020809104026020016040519081016040528092919081815260200182805461151290613cf3565b801561155f5780601f106115345761010080835404028352916020019161155f565b820191906000526020600020905b81548152906001019060200180831161154257829003601f168201915b5050505050915050919050565b6000806109886040518060400160405280600581526020016417da19585960da1b815250611ff8565b60003330148015906115bc57506115ba60008051602061450b83398151915233611450565b155b156115da576040516320d82bef60e01b815260040160405180910390fd5b6115ec8b8b8b8b8b8b8b8b8b8b6124de565b90505b9a9950505050505050505050565b6001600160a01b03831633146116255760405162461bcd60e51b81526004016109b690613b94565b82811561169257506001600160a01b038084166000908152600a6020526040902054168061168d5760405162461bcd60e51b81526020600482015260156024820152744e6f2062656e656669636961727920666f756e642160581b60448201526064016109b6565b6116c7565b6001600160a01b0381166000908152600560205260409020546116c75760405162461bcd60e51b81526004016109b690613ca0565b6116d081610cd5565b156116fc576040516001600160a01b038216815260008051602061452b83398151915290602001610a14565b6001600160a01b038116600090815260076020526040902054838110156117655760405162461bcd60e51b815260206004820152601f60248201527f416d6f756e74206973206d6f7265207468616e207468652062616c616e63650060448201526064016109b6565b6000856001600160a01b03168560405160006040518083038185875af1925050503d80600081146117b2576040519150601f19603f3d011682016040523d82523d6000602084013e6117b7565b606091505b50509050806118005760405162461bcd60e51b81526020600482015260156024820152744661696c656420746f2073656e64204e617469766560581b60448201526064016109b6565b6001600160a01b03831660009081526007602052604081208054879290611828908490613c14565b90915550506001600160a01b03838116600090815260056020908152604091829020600201805460ff1916905581519289168352820187905285151582820152517f394d6132574855aafaa8d3f53d92d18d1bb06ed6cf4b19418a95fe74f76461ec9181900360600190a1505050505050565b606060006118c56040518060400160405280600581526020016417dd185a5b60da1b815250611ff8565b6040805163ffffffff83166020820152919250600091016040516020818303038152906040529050600060405180604001604052806002815260200161712f60f01b8152508260405160200161191c929190613eb7565b60408051601f19818403018152919052949350505050565b6000838383611944838383611e03565b6119615760405163bde0493960e01b815260040160405180910390fd5b61197060208401356001613c7d565b60016000611981602087018761354b565b6001600160a01b03168152602080820192909252604001600020919091556119bf9060008051602061450b8339815191529061064d908a018a61354b565b6119dc576040516320d82bef60e01b815260040160405180910390fd5b6000808080806119ef60408d018d613ee6565b8101906119fc9190613fca565b945094509450945094507fd51c7c5244bba290f6c37777de0bc20a70c18abd55539658bc63251379297dcd60405160405180910390a16040516314a3063560e31b8152309063a51831a890611a5d90889088908890889088906004016140f0565b6020604051808303816000875af1158015611a7c573d6000803e3d6000fd5b505050506040513d601f19601f82011682018060405250810190611aa09190613be1565b9c9b505050505050505050505050565b336000908152600560205260409020600101611acd838583613d7b565b503360008181526005602081815260408084206004810180546001600160a01b0389166001600160a01b03199182168117909255428355908652600a84528286208054909116871790559490935252905490517f197fbc8dc8a4ad2d7c23be8235167af26ceecd44076af2133438ec03d97a2f3e91611b529186918691869190614151565b60405180910390a1505050565b606060006118c56040518060400160405280600581526020016417da19585960da1b815250611ff8565b6001600160a01b0383163314611bb15760405162461bcd60e51b81526004016109b690613b94565b6001600160a01b038316600090815260056020526040902054611be65760405162461bcd60e51b81526004016109b690613ca0565b6000600881848015611bfa57611bfa613bcb565b8015611c0857611c08613bcb565b815260208101919091526040908101600020549051636eb1769f60e11b81526001600160a01b03868116600483015230602483015290911691508290829063dd62ed3e90604401602060405180830381865afa158015611c6c573d6000803e3d6000fd5b505050506040513d601f19601f82011682018060405250810190611c909190614181565b1015611cee5760405162461bcd60e51b815260206004820152602760248201527f496e73756666696369656e7420616c6c6f77616e636520666f722074686520636044820152661bdb9d1c9858dd60ca1b60648201526084016109b6565b6040516323b872dd60e01b81526001600160a01b038581166004830152306024830152604482018490528216906323b872dd906064016020604051808303816000875af1158015611d43573d6000803e3d6000fd5b505050506040513d601f19601f82011682018060405250810190611d679190613be1565b506001600160a01b03841660009081526006602052604081208391858015611d9157611d91613bcb565b8015611d9f57611d9f613bcb565b81526020019081526020016000206000828254611dbc9190613c7d565b90915550506040517f166f7968af829f9d3f35300a59023bf8e80a55daa5085c1df9593b8b2b1bcb8790611df59086908690869061419a565b60405180910390a150505050565b600080611e9984848080601f016020809104026020016040519081016040528093929190818152602001838380828437600092019190915250611e9392507f2c521d146a6f6c09462cb178367b028f1718b1f01d7995bb405dae702c2bee7d9150611e73905060208a018a61354b565b60208a0135611e8560408c018c613ee6565b604051610e50929190613c90565b9061273d565b905060208501803590600190600090611eb2908961354b565b6001600160a01b03166001600160a01b0316815260200190815260200160002054148015611efd5750611ee8602086018661354b565b6001600160a01b0316816001600160a01b0316145b95945050505050565b6000600981838015611f1a57611f1a613bcb565b8015611f2857611f28613bcb565b81526020810191909152604001600020546001600160a01b031692915050565b6060600382604051611f5a9190613cd7565b90815260200160405180910390208054611f7390613cf3565b80601f0160208091040260200160405190810160405280929190818152602001828054611f9f90613cf3565b8015611fec5780601f10611fc157610100808354040283529160200191611fec565b820191906000526020600020905b815481529060010190602001808311611fcf57829003601f168201915b50505050509050919050565b60008060405180604001604052806002815260200161712f60f01b81525083604051602001612028929190613eb7565b604051602081830303815290604052905061136f60038260405161204c9190613cd7565b9081526020016040518091039020805461206590613cf3565b80601f016020809104026020016040519081016040528092919081815260200182805461209190613cf3565b80156120de5780601f106120b3576101008083540402835291602001916120de565b820191906000526020600020905b8154815290600101906020018083116120c157829003601f168201915b5050505050611322565b6000828152600260205260409020600101546121038161233b565b610f2583836123cb565b3381156121785750336000908152600a60205260409020546001600160a01b0316806121735760405162461bcd60e51b81526020600482015260156024820152744e6f2062656e656669636961727920666f756e642160581b60448201526064016109b6565b6121ad565b6001600160a01b0381166000908152600560205260409020546121ad5760405162461bcd60e51b81526004016109b690613ca0565b600c546000818152600b6020526040812080546001600160a01b0319166001600160a01b0385169081179091556121e5906014612761565b905061223c82868360056000886001600160a01b03166001600160a01b0316815260200190815260200160002060010160405160200161222894939291906141c5565b6040516020818303038152906040526128fc565b506001600c60008282546122509190613c7d565b90915550505050505050565b612264612432565b6001600160a01b0381166122c95760405162461bcd60e51b815260206004820152602660248201527f4f776e61626c653a206e6577206f776e657220697320746865207a65726f206160448201526564647265737360d01b60648201526084016109b6565b6122d28161248c565b50565b6122d260008051602061450b83398151915282612345565b60006109886122fa6129c7565b8360405161190160f01b6020820152602281018390526042810182905260009060620160405160208183030381529060405280519060200120905092915050565b6122d28133612aee565b61234f8282611450565b61120f5760008281526002602090815260408083206001600160a01b03851684529091529020805460ff191660011790556123873390565b6001600160a01b0316816001600160a01b0316837f2f8788117e7eff1d82e926ec794901d17c78024a50270940304540a733656f0d60405160405180910390a45050565b6123d58282611450565b1561120f5760008281526002602090815260408083206001600160a01b0385168085529252808320805460ff1916905551339285917ff6391f5c32d9c69d2a47ea670b442974b53935d1edc7fd64eb21e047a839171b9190a45050565b6004546001600160a01b0316331461144e5760405162461bcd60e51b815260206004820181905260248201527f4f776e61626c653a2063616c6c6572206973206e6f7420746865206f776e657260448201526064016109b6565b600480546001600160a01b038381166001600160a01b0319831681179093556040519116919082907f8be0079c531659141344cd1fd0a4f28419497f9722a3daafe3b4186f6b6457e090600090a35050565b60006124e8612b47565b89881461251257604051630c1cad1160e31b8152600481018b9052602481018990526044016109b6565b85841461253c57604051636650dea160e11b815260048101879052602481018590526044016109b6565b60005b8a81101561265257600061258060038e8e858181106125605761256061426e565b90506020028101906125729190613ee6565b60405161204c929190613c90565b905060006125e58c8c858181106125995761259961426e565b90506020028101906125ab9190613ee6565b8080601f01602080910402602001604051908101604052809392919081815260200183838082843760009201919091525061132292505050565b90508063ffffffff168263ffffffff161461263d578d8d8481811061260c5761260c61426e565b905060200281019061261e9190613ee6565b8284604051635972c75360e11b81526004016109b69493929190614284565b5050808061264a906142b6565b91505061253f565b5060005b868110156126e4578585828181106126705761267061426e565b90506020028101906126829190613ee6565b60038a8a858181106126965761269661426e565b90506020028101906126a89190613ee6565b6040516126b6929190613c90565b908152602001604051809103902091826126d1929190613d7b565b50806126dc816142b6565b915050612656565b5060005b8281101561272e5761271c8484838181106127055761270561426e565b90506020028101906127179190613ee6565b612ba0565b80612726816142b6565b9150506126e8565b50600190506115ef6001600055565b600080600061274c8585612d25565b9150915061275981612d6a565b509392505050565b606060006127708360026142cf565b61277b906002613c7d565b6001600160401b03811115612792576127926137c2565b6040519080825280601f01601f1916602001820160405280156127bc576020820181803683370190505b509050600360fc1b816000815181106127d7576127d761426e565b60200101906001600160f81b031916908160001a905350600f60fb1b816001815181106128065761280661426e565b60200101906001600160f81b031916908160001a905350600061282a8460026142cf565b612835906001613c7d565b90505b60018111156128ad576f181899199a1a9b1b9c1cb0b131b232b360811b85600f16601081106128695761286961426e565b1a60f81b82828151811061287f5761287f61426e565b60200101906001600160f81b031916908160001a90535060049490941c936128a6816142e6565b9050612838565b50831561136f5760405162461bcd60e51b815260206004820181905260248201527f537472696e67733a20686578206c656e67746820696e73756666696369656e7460448201526064016109b6565b6000806129256040518060400160405280600581526020016417dd185a5b60da1b815250611ff8565b6040805163ffffffff831660208201529192506000910160405160208183030381529060405290506129578185612eb4565b60408051808201909152600581526417dd185a5b60da1b6020820152612987906129828460016142fd565b612f1f565b7f907e5e373368eaab41cf7fd560721ee39c92964cc7abc6eba2acb769b1f7079982856040516129b8929190614321565b60405180910390a15092915050565b6000306001600160a01b037f000000000000000000000000000000000000000000000000000000000000000016148015612a2057507f000000000000000000000000000000000000000000000000000000000000000046145b15612a4a57507f000000000000000000000000000000000000000000000000000000000000000090565b50604080517f00000000000000000000000000000000000000000000000000000000000000006020808301919091527f0000000000000000000000000000000000000000000000000000000000000000828401527f000000000000000000000000000000000000000000000000000000000000000060608301524660808301523060a0808401919091528351808403909101815260c0909201909252805191012090565b612af88282611450565b61120f57612b0581612f8c565b612b10836020612761565b604051602001612b21929190614340565b60408051601f198184030181529082905262461bcd60e51b82526109b69160040161371a565b600260005403612b995760405162461bcd60e51b815260206004820152601f60248201527f5265656e7472616e637947756172643a207265656e7472616e742063616c6c0060448201526064016109b6565b6002600055565b600082826000818110612bb557612bb561426e565b919091013560f81c9150819050612bdb57610f25612bd683600181876143b5565b612fa2565b60001960ff821601612c39576021821015612c0c5760405163565ba7b960e01b8152600160048201526024016109b6565b6000612c1b83600181876143b5565b810190612c2891906143df565b9050612c33816131e3565b50505050565b60091960ff821601612ca0576015821015612c6a5760405163565ba7b960e01b8152600a60048201526024016109b6565b6000612c7983600181876143b5565b810190612c86919061354b565b9050612c3360008051602061450b83398151915282612345565b600a1960ff821601612d07576015821015612cd15760405163565ba7b960e01b8152600b60048201526024016109b6565b6000612ce083600181876143b5565b810190612ced919061354b565b9050612c3360008051602061450b833981519152826123cb565b604051630e8b3d1d60e01b815260ff821660048201526024016109b6565b6000808251604103612d5b5760208301516040840151606085015160001a612d4f87828585613302565b94509450505050612d63565b506000905060025b9250929050565b6000816004811115612d7e57612d7e613bcb565b03612d865750565b6001816004811115612d9a57612d9a613bcb565b03612de75760405162461bcd60e51b815260206004820152601860248201527f45434453413a20696e76616c6964207369676e6174757265000000000000000060448201526064016109b6565b6002816004811115612dfb57612dfb613bcb565b03612e485760405162461bcd60e51b815260206004820152601f60248201527f45434453413a20696e76616c6964207369676e6174757265206c656e6774680060448201526064016109b6565b6003816004811115612e5c57612e5c613bcb565b036122d25760405162461bcd60e51b815260206004820152602260248201527f45434453413a20696e76616c6964207369676e6174757265202773272076616c604482015261756560f01b60648201526084016109b6565b600060405180604001604052806002815260200161712f60f01b81525083604051602001612ee3929190613eb7565b604051602081830303815290604052905081600382604051612f059190613cd7565b90815260200160405180910390209081612c3391906143fc565b600060405180604001604052806002815260200161712f60f01b81525083604051602001612f4e929190613eb7565b60408051601f1981840301815282825263ffffffff85166020840152925001604051602081830303815290604052600382604051612f059190613cd7565b60606109886001600160a01b0383166014612761565b60608114612fe85760405162461bcd60e51b815260206004820152601360248201527231b0b73737ba103830b939b29030b1ba34b7b760691b60448201526064016109b6565b60008080612ff8848601866144bb565b919450925090508261315a576000828152600b60209081526040918290205482518581526001600160a01b03909116918101919091529081018290527e11fbbd55683d282d43e8245a87a4bed778971b9846bf26a5e27b85295ae9529060600160405180910390a16000828152600b60205260408120546001600160a01b0316908290036130c657604080518481526001600160a01b03831660208201527f4738ae3d54a29f7a26f5dba42db3f0ec336403567836a505cb16a3d05df07bcb910160405180910390a1613138565b81600103613138576001600160a01b03811660008181526005602090815260409182902060028101805460ff19166001179055426003909101558151868152908101929092527f76659eaf885104b353cd60dc0293f07603729bff9edaabd6b05dc009e20fbfc8910160405180910390a15b506000828152600b6020526040902080546001600160a01b03191690556131dc565b600283036131dc576000828152600b60209081526040918290205482518581526001600160a01b03909116918101919091529081018290527f8d5dbb722c7ba40ae4d962b62731d595565ecec76a5d2216fd56490075a0aa8d9060600160405180910390a16000828152600b6020526040902080546001600160a01b03191690555b5050505050565b600061320b6040518060400160405280600581526020016417dd185a5b60da1b815250611ff8565b90508063ffffffff168263ffffffff16111561324a5760405163186c5d5360e01b815263ffffffff8084166004830152821660248201526044016109b6565b60006132726040518060400160405280600581526020016417da19585960da1b815250611ff8565b90505b8263ffffffff168163ffffffff1610156132a457613292816133c3565b8061329c816144e7565b915050613275565b506132cc6040518060400160405280600581526020016417da19585960da1b81525083612f1f565b60405163ffffffff831681527f32fd4e5662a5d890e9d364f2b91716af396675b17d0d56aa259e0a42ca55751c906020016110ce565b6000807f7fffffffffffffffffffffffffffffff5d576e7357a4501ddfe92f46681b20a08311156133395750600090506003610eaa565b6040805160008082526020820180845289905260ff881692820192909252606081018690526080810185905260019060a0016020604051602081039080840390855afa15801561338d573d6000803e3d6000fd5b5050604051601f1901519150506001600160a01b0381166133b657600060019250925050610eaa565b9660009650945050505050565b6040805163ffffffff83166020820152600091016040516020818303038152906040529050600060405180604001604052806002815260200161712f60f01b81525082604051602001613417929190613eb7565b60405160208183030381529060405290506003816040516134389190613cd7565b9081526040519081900360200190208054610f25919061345790613cf3565b6000825580601f10613467575050565b601f0160209004906000526020600020908101906122d291905b808211156134955760008155600101613481565b5090565b6000602082840312156134ab57600080fd5b81356001600160e01b03198116811461136f57600080fd5b6001600160a01b03811681146122d257600080fd5b8035600181106134e757600080fd5b919050565b80151581146122d257600080fd5b6000806000806080858703121561351057600080fd5b843561351b816134c3565b9350613529602086016134d8565b9250604085013591506060850135613540816134ec565b939692955090935050565b60006020828403121561355d57600080fd5b813561136f816134c3565b60008083601f84011261357a57600080fd5b5081356001600160401b0381111561359157600080fd5b602083019150836020828501011115612d6357600080fd5b600080600080606085870312156135bf57600080fd5b84356135ca816134c3565b935060208501356001600160401b038111156135e557600080fd5b6135f187828801613568565b9598909750949560400135949350505050565b60005b8381101561361f578181015183820152602001613607565b50506000910152565b60008151808452613640816020860160208601613604565b601f01601f19169290920160200192915050565b6040815260018060a01b03835116604082015260208301516060820152600060408401516060608084015261368c60a0840182613628565b9150508260208301529392505050565b6000602082840312156136ae57600080fd5b5035919050565b600080604083850312156136c857600080fd5b82356136d3816134c3565b91506136e1602084016134d8565b90509250929050565b600080604083850312156136fd57600080fd5b82359150602083013561370f816134c3565b809150509250929050565b60208152600061136f6020830184613628565b6000806020838503121561374057600080fd5b82356001600160401b0381111561375657600080fd5b61376285828601613568565b90969095509350505050565b60008060006040848603121561378357600080fd5b833561378e816134c3565b925060208401356001600160401b038111156137a957600080fd5b6137b586828701613568565b9497909650939450505050565b634e487b7160e01b600052604160045260246000fd5b604051601f8201601f191681016001600160401b0381118282101715613800576138006137c2565b604052919050565b600082601f83011261381957600080fd5b81356001600160401b03811115613832576138326137c2565b613845601f8201601f19166020016137d8565b81815284602083860101111561385a57600080fd5b816020850160208301376000918101602001919091529392505050565b60006020828403121561388957600080fd5b81356001600160401b0381111561389f57600080fd5b6138ab84828501613808565b949350505050565b85815260a0602082015260006138cc60a0830187613628565b94151560408301525060608101929092526001600160a01b031660809091015292915050565b60006020828403121561390457600080fd5b61136f826134d8565b60008083601f84011261391f57600080fd5b5081356001600160401b0381111561393657600080fd5b6020830191508360208260051b8501011115612d6357600080fd5b60008060008060008060008060008060a08b8d03121561397057600080fd5b8a356001600160401b038082111561398757600080fd5b6139938e838f0161390d565b909c509a5060208d01359150808211156139ac57600080fd5b6139b88e838f0161390d565b909a50985060408d01359150808211156139d157600080fd5b6139dd8e838f0161390d565b909850965060608d01359150808211156139f657600080fd5b613a028e838f0161390d565b909650945060808d0135915080821115613a1b57600080fd5b50613a288d828e0161390d565b915080935050809150509295989b9194979a5092959850565b600080600060608486031215613a5657600080fd5b8335613a61816134c3565b9250602084013591506040840135613a78816134ec565b809150509250925092565b600080600060408486031215613a9857600080fd5b83356001600160401b0380821115613aaf57600080fd5b9085019060608288031215613ac357600080fd5b90935060208501359080821115613ad957600080fd5b506137b586828701613568565b600080600060408486031215613afb57600080fd5b83356001600160401b03811115613b1157600080fd5b613b1d86828701613568565b9094509250506020840135613a78816134c3565b600080600060608486031215613b4657600080fd5b8335613b51816134c3565b9250613b5f602085016134d8565b9150604084013590509250925092565b60008060408385031215613b8257600080fd5b82359150602083013561370f816134ec565b60208082526019908201527f757365722073686f756c64206265206d73672e73656e64657200000000000000604082015260600190565b634e487b7160e01b600052602160045260246000fd5b600060208284031215613bf357600080fd5b815161136f816134ec565b634e487b7160e01b600052601160045260246000fd5b8181038181111561098857610988613bfe565b60018110613c4557634e487b7160e01b600052602160045260246000fd5b9052565b6001600160a01b038516815260808101613c666020830186613c27565b836040830152821515606083015295945050505050565b8082018082111561098857610988613bfe565b8183823760009101908152919050565b6020808252601b908201527f4163636f756e74206973206e6f7420696e697469616c697a6564210000000000604082015260600190565b60008251613ce9818460208701613604565b9190910192915050565b600181811c90821680613d0757607f821691505b602082108103613d2757634e487b7160e01b600052602260045260246000fd5b50919050565b601f821115610f2557600081815260208120601f850160051c81016020861015613d545750805b601f850160051c820191505b81811015613d7357828155600101613d60565b505050505050565b6001600160401b03831115613d9257613d926137c2565b613da683613da08354613cf3565b83613d2d565b6000601f841160018114613dda5760008515613dc25750838201355b600019600387901b1c1916600186901b1783556131dc565b600083815260209020601f19861690835b82811015613e0b5786850135825560209485019460019092019101613deb565b5086821015613e285760001960f88860031b161c19848701351681555b505060018560011b0183555050505050565b81835281816020850137506000828201602090810191909152601f909101601f19169091010190565b6001600160a01b0384168152604060208201819052600090611efd9083018486613e3a565b63ffffffff811681146122d257600080fd5b600060208284031215613eac57600080fd5b815161136f81613e88565b60008351613ec9818460208801613604565b835190830190613edd818360208801613604565b01949350505050565b6000808335601e19843603018112613efd57600080fd5b8301803591506001600160401b03821115613f1757600080fd5b602001915036819003821315612d6357600080fd5b600082601f830112613f3d57600080fd5b813560206001600160401b0380831115613f5957613f596137c2565b8260051b613f688382016137d8565b9384528581018301938381019088861115613f8257600080fd5b84880192505b85831015613fbe57823584811115613fa05760008081fd5b613fae8a87838c0101613808565b8352509184019190840190613f88565b98975050505050505050565b600080600080600060a08688031215613fe257600080fd5b85356001600160401b0380821115613ff957600080fd5b61400589838a01613f2c565b9650602088013591508082111561401b57600080fd5b61402789838a01613f2c565b9550604088013591508082111561403d57600080fd5b61404989838a01613f2c565b9450606088013591508082111561405f57600080fd5b61406b89838a01613f2c565b9350608088013591508082111561408157600080fd5b5061408e88828901613f2c565b9150509295509295909350565b600081518084526020808501808196508360051b8101915082860160005b858110156140e35782840389526140d1848351613628565b988501989350908401906001016140b9565b5091979650505050505050565b60a08152600061410360a083018861409b565b8281036020840152614115818861409b565b90508281036040840152614129818761409b565b9050828103606084015261413d818661409b565b90508281036080840152613fbe818561409b565b606081526000614165606083018688613e3a565b6001600160a01b03949094166020830152506040015292915050565b60006020828403121561419357600080fd5b5051919050565b6001600160a01b0384168152606081016141b76020830185613c27565b826040830152949350505050565b848152600060208581840152608060408401526141e56080840186613628565b8381036060850152600085546141fa81613cf3565b80845260018281168015614215576001811461422f5761425d565b60ff1984168688015282151560051b86018701945061425d565b896000528660002060005b848110156142555781548882018a015290830190880161423a565b870188019550505b50929b9a5050505050505050505050565b634e487b7160e01b600052603260045260246000fd5b606081526000614298606083018688613e3a565b63ffffffff9485166020840152929093166040909101529392505050565b6000600182016142c8576142c8613bfe565b5060010190565b808202811582820484141761098857610988613bfe565b6000816142f5576142f5613bfe565b506000190190565b63ffffffff81811683821601908082111561431a5761431a613bfe565b5092915050565b63ffffffff831681526040602082015260006138ab6040830184613628565b7f416363657373436f6e74726f6c3a206163636f756e7420000000000000000000815260008351614378816017850160208801613604565b7001034b99036b4b9b9b4b733903937b6329607d1b60179184019182015283516143a9816028840160208801613604565b01602801949350505050565b600080858511156143c557600080fd5b838611156143d257600080fd5b5050820193919092039150565b6000602082840312156143f157600080fd5b813561136f81613e88565b81516001600160401b03811115614415576144156137c2565b614429816144238454613cf3565b84613d2d565b602080601f83116001811461445e57600084156144465750858301515b600019600386901b1c1916600185901b178555613d73565b600085815260208120601f198616915b8281101561448d5788860151825594840194600190910190840161446e565b50858210156144ab5787850151600019600388901b60f8161c191681555b5050505050600190811b01905550565b6000806000606084860312156144d057600080fd5b505081359360208301359350604090920135919050565b600063ffffffff80831681810361450057614500613bfe565b600101939250505056fea7e0cd0f2772b23ee4c329892293a6bd99d48c306b094d6d008c9a8bb8b731e45a19989211563cff6ade0e4187a96db341350c914e9e53fbe3f3a57ff51637b0a264697066735822122043c9b920a244efca60db4335645518b49595ae4d488859c7605797e52b170e8a64736f6c63430008110033",
  "linkReferences": {},
  "deployedLinkReferences": {}
}